:020000040800F2
:100000000050002065380008B5380008B5380008F1
:10001000B5380008B5380008B53800080000000001
:10002000000000000000000000000000B5380008DB
:10003000B538000800000000B5380008B5380008E1
:10004000B5380008B5380008B5380008B5380008DC
:10005000B5380008B5380008B5380008B5380008CC
:10006000B5380008B5380008B5380008B5380008BC
:10007000B5380008B5380008B5380008B5380008AC
:10008000B5380008B5380008B5380008B53800089C
:10009000B5380008B5380008B5380008290200084E
:1000A000B5380008B5380008B5380008B53800087C
:1000B000B5380008B5380008B5380008B53800086C
:1000C000B5380008B5380008B5380008B53800085C
:1000D000B5380008B5380008B5380008B53800084C
:1000E000B5380008B538000800000000B538000831
:1000F000B5380008B5380008B5380008B53800082C
:10010000B5380008B5380008B5380008B53800081B
:10011000B5380008B5380008B5380008B53800080B
:10012000B5380008B5380008B5380008B5380008FB
:1001300010B5054C237833B9044B13B10448AFF321
:1001400000800123237010BD680000200000000023
:100150006848000808B5034B1BB103490348AFF3D7
:10016000008008BD000000006C0000206848000806
:1001700080B500AF00F018F800F082F8602200218E
:10018000084803F059F960220421064803F054F9A5
:1001900060220821034803F04FF900F023F900BF63
:1001A00080BD00BF002C014080B584B000AF0121AC
:1001B000092002F0ADF84FF46073BB814823FB7354
:1001C0000223BB7307F10C031946164801F002FB2A
:1001D00017233B7000237B700023BB700123FB704F
:1001E0003B46184600F036FB0721012001F04EFD8A
:1001F0000821012001F04AFD0921012001F046FDFE
:100200004FF460737B600123BB7200233B721023A9
:100210007B723B1D184601F08BF900BF1037BD46BD
:1002200080BD00BF000C014098B500AF802001F0F8
:1002300039FA03461C464FF4807001F033FA034646
:100240002343DCB24FF4007001F02CFA0346234341
:10025000DBB2002B11D0802001F09AFA4FF48070AD
:1002600001F096FA4FF4007001F092FA00F090F865
:1002700003469BB2184600F0E1F800BF98BD0000AD
:1002800080B58CB000AF01210C2002F041F84FF492
:100290006043BB85032387F82E30182387F82F305F
:1002A00007F12C031946374801F094FA4FF4E06344
:1002B000BB85032387F82E30182387F82F3007F1EA
:1002C0002C031946304801F085FA01214FF40060F3
:1002D00002F01EF800233B8400237B8441F2941338
:1002E000BB840023FB84002387F8283007F1200318
:1002F0001946264802F0B6F800233B8201237B8290
:100300000423BB820023FB8200233B8300237B83E7
:100310000023BB830023FB8307F1100319461B480E
:1003200002F0AAF907F110031946184802F014FB6D
:1003300007F110031946154802F05AFC4FF4006308
:100340003B804FF480637B800023BB804823FB808D
:100350004FF48043BB814FF480533B8100237B816A
:100360003B461946094802F07BFD0121074802F08F
:100370003FFE0121054802F0D9FE00BF3037BD46DF
:1003800080BD00BF000C014000080140002C01406E
:1003900080B500AF054801F0E7FB0346DB11DBB297
:1003A00003F00703DBB2184680BD00BF000C01401C
:1003B00080B400AF024B1B781846BD4680BC704726
:1003C0008400002080B483B000AF0346FB71044A70
:1003D000FB79137000BF0C37BD4680BC704700BF6F
:1003E0008400002080B500AF002000F005F9002255
:1003F0000021104802F0F8FE002204210D4802F00E
:10040000F3FE002208210B4802F0EEFE002200213C
:10041000084802F09BFF00220421064802F096FFE4
:1004200000220821034802F091FF034B00221A70BA
:1004300000BF80BD002C01408400002080B582B048
:1004400000AF0346FB80544B1B78012B0CD1FA887C
:1004500013465B0013445B00504A1A44504B10682B
:10046000186092889A800BE0FA8813465B00134468
:100470005B004C4A1A444A4B1068186092889A8074
:10048000474B1B78002B0FD060220021464802F01A
:10049000D3FF01220021444802F0A6FE04220021DD
:1004A000414802F053FF18E0002200213E4802F0CC
:1004B0009BFE3B4B5B78002B0AD0502200213A4830
:1004C00002F0BAFF04220021374802F03FFF04E0A7
:1004D00000220021344802F039FF314B9B78002B79
:1004E0000FD060220421304802F0A6FF012204212F
:1004F0002D4802F079FE042204212B4802F026FF49
:1005000018E000220421284802F06EFE244BDB781C
:10051000002B0AD050220421234802F08DFF042230
:100520000421214802F012FF04E0002204211E48A9
:1005300002F00CFF1A4B1B79002B0FD06022082110
:10054000194802F079FF01220821174802F04CFEF9
:1005500004220821144802F0F9FE18E000220821C4
:10056000114802F041FE0E4B5B79002B0AD050225D
:1005700008210D4802F060FF042208210A4802F019
:10058000E5FE04E000220821074802F0DFFE00BF7C
:100590000837BD4680BD00BF840000206C610008A4
:1005A000880000209C610008002C014080B485B0C8
:1005B00000AF0346FB80FB88312B01D8002314E0F9
:1005C000FB88B3F57A6F02D941F295130DE0FB88F1
:1005D000323B1A4641F2941302FB03F3054AA2FB95
:1005E00003239B0AFB60FB689BB218461437BD4689
:1005F00080BC7047353AFC4480B483B000AF0346FA
:10060000FB80074AFB889386054AFB881387044AC8
:10061000FB88938700BF0C37BD4680BC704700BF86
:10062000002C014080B582B000AF01F0C9FB4FF44F
:10063000803001F0F3FB01F037FC0346FB71FB79DE
:10064000012B23D1002001F031FD002001F0AAFD93
:100650004FF4806001F06CFD4FF4E0114FF48030F6
:1006600001F04AFC012001F0C1FC00BF392001F07B
:1006700093FE0346002BF9D0022001F0D9FC00BF05
:1006800001F006FD0346082BFAD100E0FEE708372B
:10069000BD4680BD80B592B000AF002001F0BEFD28
:1006A000012140F2092001F033FE0121012001F077
:1006B000EBFD01233B610023FB600023FB62344B15
:1006C000BB604FF480633B628023BB6120237B626D
:1006D000304B7B604FF48073FB6100237B614FF4F0
:1006E0000053BB623B1D19462B4800F067FD0121FA
:1006F000294800F09DFE0223A7F84430002387F824
:10070000473007F144031946244801F063F80123F8
:1007100087F835300023FB634FF46023BB6300236D
:100720003B63012387F84030012387F8343007F119
:10073000300319461A4800F01BF90723012209214A
:10074000174800F0E3FB0121154800F045FA0121AC
:10075000134800F089FA124800F0C8FA00BF1048A8
:1007600000F0F2FA0346002BF9D10D4800F022FB0D
:1007700000BF0B4800F04CFB0346002BF9D10121D0
:10078000074800F07BFB00BF4837BD4680BD00BF77
:10079000000000204C24014008000240000C0140F1
:1007A0000024014080B582B000AFFFF73BFFFFF7A8
:1007B00071FFFFF7DDFC0121082001F0A9FD0123F5
:1007C000BB804823FB710223BB713B1D19461F48A8
:1007D00001F000F801211D4801F008FA1C4B1B88AC
:1007E0009BB2C82B24D9FFF7E3FD0346002B14D19D
:1007F0000121164801F028F90346002B03D00120FF
:10080000FFF7E0FD02E00220FFF7DCFDFFF7C0FD8F
:1008100003469BB21846FFF711FE0D4B1B889BB297
:100820001846FFF7C3FE03461846FFF7E5FED5E777
:10083000FFF7BEFD0346002BD0D0054B1B889BB2B3
:10084000312BCBD8FFF7CEFDC8E700BF000C01402D
:100850000000002080B586B000AF786000237B6187
:1008600000233B610F23FB607B68DB78002B09D002
:100870007B68DB78012B05D0364B374A752137482A
:1008800003F01AF87B685B780F2B05D9344B324A9A
:100890007621324803F010F87B689B780F2B05D93E
:1008A000304B2D4A77212D4803F006F87B68DB7822
:1008B000002B3AD02C4BDB68DB431B0A03F0070309
:1008C0007B617B69C3F104033B61FA687B6922FAAF
:1008D00003F3FB607B685B781A463B6902FA03F31B
:1008E0007B617B689B781A46FB6813407A691343E7
:1008F0007B617B691B017B611C4A7B681B78796982
:10090000C9B213440A4683F800237B681B7803F0BE
:100910001F0316497A6812785209D2B21046012292
:1009200002FA03F341F820300FE07B681B7803F0F4
:100930001F030E497A6812785209D2B2104601227A
:100940009A4000F1200341F8232000BF1837BD462C
:1009500080BD00BFBC480008CC610008AC4800085E
:10096000F84800084849000800ED00E000E100E018
:1009700080B584B000AF786039600023FB6000234D
:10098000FB727B68874A93420DD07B68864A93420C
:1009900009D07B68854A934205D0854B854AE02182
:1009A000854802F089FF3B681B68002B32D03B680A
:1009B0001B68B3F5803F2DD03B681B68B3F5003F43
:1009C00028D03B681B68B3F5403F23D03B681B68C9
:1009D000B3F5802F1ED03B681B68B3F5A02F19D04C
:1009E0003B681B68B3F5C02F14D03B681B68B3F598
:1009F000E02F0FD03B681B68B3F5002F0AD03B688F
:100A00001B68B3F5102F05D06C4B6A4AE1216A4888
:100A100002F052FF3B681B79002B09D03B681B7921
:100A2000012B05D0664B634AE221634802F044FF84
:100A30003B685B79002B09D03B685B79012B05D0C3
:100A4000604B5C4AE3215C4802F036FF3B689B68E0
:100A5000002B45D03B689B68B3F5003F40D03B6816
:100A60009B68B3F5802F3BD03B689B68B3F5C02FE4
:100A700036D03B689B68B3F5002F31D03B689B684C
:100A8000B3F5202F2CD03B689B68B3F5402F27D0BF
:100A90003B689B68B3F5602F22D03B689B68002BB6
:100AA0001ED03B689B68B3F5003F19D03B689B683C
:100AB000B3F5C02F14D03B689B68B3F5002F0FD05F
:100AC0003B689B68B3F5202F0AD03B689B68B3F561
:100AD000402F05D03C4B374AE421374802F0ECFE6A
:100AE0003B68DB68002B0AD03B68DB68B3F5006F1E
:100AF00005D0364B2F4AE5212F4802F0DDFE3B683A
:100B00001B7C002B03D03B681B7C102B05D9304B82
:100B1000284AE621284802F0CFFE7B685B68FB602C
:100B2000FB6823F4702323F48073FB603B681A682E
:100B30003B681B791B021343FA681343FB607B6815
:100B4000FA685A607B689B68FB60FA68214B134027
:100B5000FB603B68DA683B689B681A433B685B79DB
:100B60005B001343FA681343FB607B68FA689A6082
:100B70007B68DB6AFB60FB6823F47003FB603B6807
:100B80001B7C013BDAB2FB7A1343FB72FB7A1B0539
:100B9000FA681343FB607B68FA68DA6200BF1037BB
:100BA000BD4680BD0024014000280140003C0140BA
:100BB0002C4A0008D8610008444A00085C4A000832
:100BC000844A0008BC4A0008F84A0008304B000874
:100BD000644B0008FDF7F1FF80B582B000AF78608C
:100BE0000B46FB707B68194A93420ED07B68184A0B
:100BF00093420AD07B68174A934206D0164B174A95
:100C000040F22F11164802F057FEFB78002B09D056
:100C1000FB78012B06D0134B104A4FF49871104803
:100C200002F04AFEFB78002B06D07B689B6843F0FD
:100C300001027B689A6005E07B689B6823F00102F3
:100C40007B689A6000BF0837BD4680BD0024014024
:100C500000280140003C01402C4A0008E4610008E3
:100C6000444A00089C4B000880B582B000AF786011
:100C70000B46FB707B68174A93420AD07B68164A82
:100C8000934206D0154B164A4FF4A471154802F052
:100C900013FEFB78002B09D0FB78012B06D0124BFA
:100CA0000F4A40F249110F4802F006FEFB78002B74
:100CB00006D07B689B6843F480727B689A6005E08D
:100CC0007B689B6823F480727B689A6000BF08375A
:100CD000BD4680BD00240140003C0140BC4B0008E3
:100CE000EC610008444A00089C4B000880B582B0C3
:100CF00000AF78607B680E4A93420ED07B680D4A45
:100D000093420AD07B680C4A934206D00B4B0C4AA4
:100D100040F27F110B4802F0CFFD7B689B6843F0E7
:100D200008027B689A6000BF0837BD4680BD00BFDF
:100D30000024014000280140003C01402C4A0008EA
:100D4000F8610008444A000880B584B000AF7860BC
:100D50000023FB737B68114A93420ED07B68104AD4
:100D600093420AD07B680F4A934206D00E4B0F4A3B
:100D700040F28D110E4802F09FFD7B689B6803F0E6
:100D80000803002B02D00123FB7301E00023FB7357
:100D9000FB7B18461037BD4680BD00BF00240140D4
:100DA00000280140003C01402C4A00081062000865
:100DB000444A000880B582B000AF78607B680E4A74
:100DC00093420ED07B680D4A93420AD07B680C4A4E
:100DD000934206D00B4B0C4A40F2A5110B4802F08F
:100DE0006BFD7B689B6843F004027B689A6000BFE0
:100DF0000837BD4680BD00BF0024014000280140E7
:100E0000003C01402C4A000830620008444A0008B7
:100E100080B584B000AF78600023FB737B68114A13
:100E200093420ED07B68104A93420AD07B680F4AE7
:100E3000934206D00E4B0F4A40F2B3110E4802F017
:100E40003BFD7B689B6803F00403002B02D0012369
:100E5000FB7301E00023FB73FB7B18461037BD4694
:100E600080BD00BF0024014000280140003C01403B
:100E70002C4A000848620008444A000880B582B045
:100E800000AF78600B46FB707B68194A93420ED026
:100E90007B68184A93420AD07B68174A934206D06F
:100EA000164B174A40F2CD11164802F005FDFB78AB
:100EB000002B09D0FB78012B06D0134B104A4FF4BE
:100EC000E771104802F0F8FCFB78002B06D07B6835
:100ED0009B6843F4A0027B689A6005E07B689B688E
:100EE00023F4A0027B689A6000BF0837BD4680BD2E
:100EF0000024014000280140003C01402C4A000829
:100F000064620008444A00089C4B000880B584B025
:100F100000AF7860084611461A460346FB700B4640
:100F2000BB7013467B700023FB600023BB607B68B3
:100F3000854A93420ED07B68844A93420AD07B68EC
:100F4000834A934206D0834B834A40F2532183481D
:100F500002F0B2FCFB78002B39D0FB78012B36D0A5
:100F6000FB78022B33D0FB78032B30D0FB78042B9B
:100F70002DD0FB78052B2AD0FB78062B27D0FB78C9
:100F8000072B24D0FB78082B21D0FB78092B1ED00F
:100F9000FB780A2B1BD0FB780B2B18D0FB780C2B83
:100FA00015D0FB780D2B12D0FB780E2B0FD0FB78D1
:100FB0000F2B0CD0FB78102B09D0FB78112B06D00F
:100FC000674B654A4FF41571644802F075FCBB78B5
:100FD000002B02D0BB78102B06D9624B5E4A40F240
:100FE00055215E4802F068FC7B78002B1BD07B7893
:100FF000012B18D07B78022B15D07B78032B12D0D5
:101000007B78042B0FD07B78052B0CD07B78062BBC
:1010100009D07B78072B06D0534B4F4A40F256211C
:101020004E4802F049FCFB78092B23D97B68DB682A
:10103000FB60FB78A3F10A0213465B00134407220E
:1010400002FA03F3BB60BB68DB43FA681340FB6042
:101050007978FB78A3F10A0213465B00134401FA86
:1010600003F3BB60FA68BB681343FB607B68FA68F4
:10107000DA601EE07B681B69FB60FA7813465B0050
:101080001344072202FA03F3BB60BB68DB43FA6830
:101090001340FB607978FA7813465B00134401FA39
:1010A00003F3BB60FA68BB681343FB607B68FA68B4
:1010B0001A61BB78062B21D87B685B6BFB60BB7821
:1010C0005A1E13469B0013441F2202FA03F3BB600F
:1010D000BB68DB43FA681340FB60F978BB785A1EA3
:1010E00013469B00134401FA03F3BB60FA68BB6824
:1010F0001343FB607B68FA685A635AE0BB780C2B99
:1011000034D87B681B6BFB60BB78DA1F13469B00EF
:1011100013441F2202FA03F3BB60BB68DB43FA6887
:101120001340FB60F978BB78DA1F13469B00134429
:1011300001FA03F3BB60FA68BB681343FB607B688A
:10114000FA681A6335E000BF00240140002801401E
:10115000003C01402C4A000880620008444A000814
:101160000C4C0008284C0008444C00087B68DB6AE3
:10117000FB60BB78A3F10D0213469B0013441F22B2
:1011800002FA03F3BB60BB68DB43FA681340FB6001
:10119000F978BB78A3F10D0213469B00134401FAC2
:1011A00003F3BB60FA68BB681343FB607B68FA68B3
:1011B000DA6200BF1037BD4680BD00BF80B584B085
:1011C00000AF786039600023FB607B68804A9342FF
:1011D00031D07B687F4A93422DD07B687E4A934210
:1011E00029D07B687D4A934225D07B687C4A934214
:1011F00021D07B687B4A93421DD07B687A4A934218
:1012000019D07B68794A934215D07B68784A93421B
:1012100011D07B68774A93420DD07B68764A93421F
:1012200009D07B68754A934205D0754B754ACF212A
:10123000754802F041FB3B689B68102B09D03B6866
:101240009B68002B05D0714B6E4AD0216E4802F08E
:1012500033FB3B68DB68002B04D03B68DB68B3F5ED
:10126000803F05D36A4B674AD121674802F024FBCF
:101270003B681B69402B09D03B681B69002B05D0DC
:10128000644B604AD221604802F016FB3B685B6900
:10129000802B09D03B685B69002B05D05E4B594A17
:1012A000D321594802F008FB3B689B69002B0FD003
:1012B0003B689B69B3F5807F0AD03B689B69B3F5B7
:1012C000007F05D0554B4F4AD4214F4802F0F4FA25
:1012D0003B68DB69002B0FD03B68DB69B3F5806F9F
:1012E0000AD03B68DB69B3F5006F05D04C4B454A2B
:1012F000D521454802F0E0FA3B681B6A202B09D053
:101300003B681B6A002B05D0464B3E4AD6213E481F
:1013100002F0D2FA3B685B6AB3F5405F13D03B68DA
:101320005B6AB3F5005F0ED03B685B6AB3F5805F24
:1013300009D03B685B6A002B05D03B4B314AD72173
:10134000314802F0B9FA3B689B6AB3F5804F09D087
:101350003B689B6A002B05D0344B2A4AD8212A4887
:1013600002F0AAFA7B681B68FB60FB6823F4FF436A
:1013700023F07003FB603B689A683B681B6A1A4362
:101380003B681B691A433B685B691A433B689B696E
:101390001A433B68DB691A433B685B6A1A433B6844
:1013A0009B6A1343FA681343FB607B68FA681A6010
:1013B0003B68DA687B685A603B681A687B689A60A9
:1013C0003B685A687B68DA6000BF1037BD4680BD55
:1013D000080002401C00024030000240440002406D
:1013E000580002406C0002408000024008040240A5
:1013F0001C040240300402404404024058040240ED
:10140000DC4D00089C620008004E0008184E0008E1
:101410003C4E0008704E0008B04E0008E84E000830
:101420002C4F0008684F0008904F0008C04F00087C
:1014300080B582B000AF78600B46FB707B682C4AA9
:10144000934232D07B682B4A93422ED07B682A4A43
:1014500093422AD07B68294A934226D07B68284A47
:10146000934222D07B68274A93421ED07B68264A4B
:1014700093421AD07B68254A934216D07B68244A4F
:10148000934212D07B68234A93420ED07B68224A53
:1014900093420AD07B68214A934206D0204B214ACE
:1014A00040F22911204802F007FAFB78002B09D0FE
:1014B000FB78012B06D01D4B1A4A4FF495711A4840
:1014C00002F0FAF9FB78002B06D07B681B6843F02A
:1014D00001027B681A6006E07B681A684FF6FE73AB
:1014E00013407A68136000BF0837BD4680BD00BF57
:1014F000080002401C00024030000240440002404C
:10150000580002406C000240800002400804024083
:101510001C040240300402404404024058040240CB
:10152000DC4D0008A8620008004E0008EC4F0008DF
:1015300080B584B000AF78600023FB607B681B79C6
:10154000002B09D07B681B79042B05D04E4B4F4AEA
:101550006B214F4802F0B0F97B685B79082B0DD006
:101560007B685B790C2B09D07B685B79102B05D0ED
:10157000484B464A6C21464802F09EF97B681B683E
:101580001B0D1B05002B03D17B681B68002B05D1AD
:10159000414B3E4A6D213E4802F08EF97B689B79B3
:1015A000002B09D07B689B79012B05D03B4B374A38
:1015B0006E21374802F080F9394BFB607B689B79DC
:1015C000002B4FD0364B1A687B681B68DB433449CD
:1015D00013400B60324B5A687B681B68DB43304911
:1015E00013404B607B681B791A46FB681344FB6011
:1015F000FB6819687B681A68FB680A431A60284B05
:101600009A687B681B68DB43254913408B60244B39
:10161000DA687B681B68DB4321491340CB607B6839
:101620005B79102B0ED11E4B9A687B681B681C4996
:1016300013438B601A4BDA687B681B6818491343A5
:10164000CB601DE0164BFB607B685B791A46FB683C
:101650001344FB60FB6819687B681A68FB680A43DF
:101660001A600DE07B681B791A46FB681344FB6027
:10167000FB6819687B681B68DA43FB680A401A60DC
:1016800000BF1037BD4680BD98500008B06200080A
:10169000C4500008DC5000080C5100083851000804
:1016A0000004014080B584B000AF78600023FB7374
:1016B0000023BB607B68012B4AD07B68022B47D09C
:1016C0007B68042B44D07B68082B41D07B68102BAF
:1016D0003ED07B68202B3BD07B68402B38D07B688A
:1016E000802B35D07B68B3F5807F31D07B68B3F534
:1016F000007F2DD07B68B3F5806F29D07B68B3F570
:10170000006F25D07B68B3F5805F21D07B68B3F58F
:10171000005F1DD07B68B3F5804F19D07B68B3F5AF
:10172000004F15D07B68B3F5803F11D07B68B3F5CF
:10173000003F0DD07B68B3F5802F09D07B68B3F5EF
:10174000002F05D00E4B0F4AE6210F4802F0B4F8E7
:101750000E4B1B687A681340BB600C4B5A697B6860
:101760001340002B05D0BB68002B02D00123FB7374
:1017700001E00023FB73FB7B18461037BD4680BD9C
:1017800084510008BC620008C450000800040140F5
:1017900080B582B000AF78607B681B0D1B05002B05
:1017A00002D17B68002B05D1064B074AFD21074873
:1017B00002F082F8064A7B68536100BF0837BD46D5
:1017C00080BD00BF6C510008D0620008C450000802
:1017D0000004014080B588B000AF78603960002314
:1017E000FB6100233B610023BB610023FB600023FE
:1017F0007B610023BB607B68864A93421DD07B6877
:10180000854A934219D07B68844A934215D07B68FD
:10181000834A934211D07B68824A93420DD07B6801
:10182000814A934209D07B68804A934205D0804B1D
:10183000804AB321804802F03FF83B68DB78002BF8
:1018400021D03B68DB78042B1DD03B68DB78282B4C
:1018500019D03B68DB78482B15D03B68DB78142B1C
:1018600011D03B68DB78102B0DD03B68DB781C2B4C
:1018700009D03B68DB78182B05D0704B6D4AB4213A
:101880006D4802F019F83B681B88002B05D16C4BA2
:10189000684AB521684802F00FF83B68DB7803F02E
:1018A0000F03FB613B68DB7803F01003002B17D0BC
:1018B0003B689B78012B0DD03B689B78022B09D0AD
:1018C0003B689B78032B05D05E4B5A4ABC215A4893
:1018D00001F0F2FF3B689B781A46FB691343FB61FA
:1018E0003B681B88DBB2002B44D07B681B687B61A4
:1018F0000023BB6138E00122BB6902FA03F3FB60FD
:101900003B681B881A46FB6813403B613A69FB68D9
:101910009A4226D1BB699B00FB600F22FB6802FA4A
:1019200003F3BB60BB68DB437A6913407B61FA69F0
:10193000FB6802FA03F37A6913437B613B68DB7847
:10194000282B05D10122BB699A407B685A6108E0C7
:101950003B68DB78482B04D10122BB699A407B6845
:101960001A61BB690133BB61BB69072BC3D97B68B3
:101970007A691A603B681B88FF2B46D97B685B68D5
:101980007B610023BB613AE0BB690833012202FAA4
:1019900003F3FB603B681B881A46FB6813403B61FE
:1019A0003A69FB689A4227D1BB699B00FB600F2212
:1019B000FB6802FA03F3BB60BB68DB437A69134040
:1019C0007B61FA69FB6802FA03F37A6913437B616E
:1019D0003B68DB78282B05D1BB69083301229A408C
:1019E0007B685A613B68DB78482B05D1BB690833BB
:1019F00001229A407B681A61BB690133BB61BB69F4
:101A0000072BC1D97B687A695A6000BF2037BD4671
:101A100080BD00BF00080140000C014000100140E3
:101A20000014014000180140001C0140002001404A
:101A3000A0510008E8620008BC510008D451000819
:101A4000005200082852000880B584B000AF7860CA
:101A50000B467B800023FB737B68384A93421ED081
:101A60007B68374A93421AD07B68364A934216D035
:101A70007B68354A934212D07B68344A93420ED039
:101A80007B68334A93420AD07B68324A934206D03D
:101A9000314B324A40F21F11314801F00DFF7B8873
:101AA000012B3BD07B88022B38D07B88042B35D090
:101AB0007B88082B32D07B88102B2FD07B88202B63
:101AC0002CD07B88402B29D07B88802B26D07B880C
:101AD000B3F5807F22D07B88B3F5007F1ED07B8852
:101AE000B3F5806F1AD07B88B3F5006F16D07B8872
:101AF000B3F5805F12D07B88B3F5005F0ED07B8892
:101B0000B3F5804F0AD07B88B3F5004F06D0154B54
:101B1000124A4FF49071124801F0CEFE7B689A6829
:101B20007B881340002B02D00123FB7301E00023CC
:101B3000FB73FB7B18461037BD4680BD0008014093
:101B4000000C014000100140001401400018014049
:101B5000001C014000200140A0510008F462000870
:101B6000BC5100085452000880B582B000AF7860C4
:101B70007B68144A93421ED07B68134A93421AD062
:101B80007B68124A934216D07B68114A934212D066
:101B90007B68104A93420ED07B680F4A93420AD06A
:101BA0007B680E4A934206D00D4B0E4A40F2351127
:101BB0000D4801F081FE7B689B689BB21846083790
:101BC000BD4680BD00080140000C014000100140EE
:101BD0000014014000180140001C01400020014099
:101BE000A05100080C630008BC51000880B582B009
:101BF00000AF78600B467B807B68194A93421ED009
:101C00007B68184A93421AD07B68174A934216D0D1
:101C10007B68164A934212D07B68154A93420ED0D5
:101C20007B68144A93420AD07B68134A934206D0D9
:101C3000124B134A4FF4B571124801F03DFE7B88F8
:101C4000002B06D1104B0E4A40F26B110D4801F0EB
:101C500033FE7A887B681A6100BF0837BD4680BDB5
:101C600000080140000C0140001001400014014038
:101C700000180140001C014000200140A051000854
:101C800020630008BC5100087052000880B584B081
:101C900000AF03460A46FB711346BB710023FB608D
:101CA000FB79002B18D0FB79012B15D0FB79022B87
:101CB00012D0FB79032B0FD0FB79042B0CD0FB79CE
:101CC000052B09D0FB79062B06D0384B384A40F259
:101CD0006621384801F0F0FDBB79002B33D0BB7989
:101CE000012B30D0BB79022B2DD0BB79032B2AD00E
:101CF000BB79042B27D0BB79052B24D0BB79062BCD
:101D000021D0BB79072B1ED0BB79082B1BD0BB7908
:101D1000092B18D0BB790A2B15D0BB790B2B12D00D
:101D2000BB790C2B0FD0BB790D2B0CD0BB790E2BB4
:101D300009D0BB790F2B06D01F4B1D4A40F26721FB
:101D40001C4801F0B9FDBB7903F003039B000F228F
:101D500002FA03F3FB60194ABB799B08DBB202333A
:101D600052F82320FB68DB431448B9798908C9B2CB
:101D70001A408B1C40F82320104ABB799B08DBB229
:101D8000023352F82320F979BB7903F003039B0057
:101D900001FA03F30948B9798908C9B21A438B1CBF
:101DA00040F8232000BF1037BD4680BD34530008E3
:101DB00030630008BC510008D45200080000014004
:101DC00080B400AF134B1B68124A43F00103136049
:101DD000104B5A680F49104B13404B600D4B1B685A
:101DE0000C4A23F0847323F480331360094B1B687F
:101DF000084A23F480231360064B5B68054A23F4EA
:101E0000FE035360034B4FF41F029A6000BFBD46B0
:101E100080BC7047001002400000FFF880B582B01F
:101E200000AF78607B68002B0ED07B68B3F5803FF5
:101E30000AD07B68B3F5802F06D0174B174A4FF4B2
:101E40008971174801F038FD164B1B68154A23F4B9
:101E500080331360134B1B68124A23F480231360F2
:101E60007B68B3F5803F04D07B68B3F5802F07D043
:101E70000DE00C4B1B680B4A43F48033136006E003
:101E8000084B1B68074A43F4A023136000BF00BF40
:101E90000837BD4680BD00BF985300084463000862
:101EA000AC5300080010024080B582B000AF0023A0
:101EB0003B600023FB710023BB71312000F06CFA02
:101EC0000346BB713B6801333B603B68B3F5A06FD1
:101ED00002D0BB79002BF0D0312000F05DFA034630
:101EE000002B02D00123FB7101E00023FB71FB7981
:101EF00018460837BD4680BD80B584B000AF786015
:101F000039600023FB607B68002B0ED07B68B3F543
:101F1000803F0AD07B68B3F5403F06D02E4B2F4A56
:101F20004FF4C0712E4801F0C7FC3B68002B3ED037
:101F30003B68B3F5802F3AD03B68B3F5002F36D01D
:101F40003B68B3F5402F32D03B68B3F5801F2ED0ED
:101F50003B68B3F5A01F2AD03B68B3F5C01F26D05D
:101F60003B68B3F5E01F22D03B68B3F5001F1ED0DD
:101F70003B68B3F5101F1AD03B68B3F5201F16D08D
:101F80003B68B3F5301F12D03B68B3F5401F0ED04D
:101F90003B68B3F5501F0AD03B68B3F5601F06D00D
:101FA000104B0E4A40F281110D4801F085FC0E4B9A
:101FB0005B68FB60FB6823F47C13FB607A683B681A
:101FC0001343FA681343FB60074AFB68536000BF82
:101FD0001037BD4680BD00BF14540008546300088C
:101FE000AC530008385400080010024080B582B09D
:101FF00000AF0346FB71FB79002B09D0FB79012B65
:1020000006D0074B074A40F29511074801F054FCEF
:10201000064AFB79136000BF0837BD4680BD00BF8C
:10202000F453000864630008AC53000860004242A7
:1020300080B584B000AF78600023FB607B68002B24
:102040000CD07B68012B09D07B68022B06D00C4B8F
:102050000C4A40F239210C4801F02EFC0B4B5B6816
:10206000FB60FB6823F00303FB60FA687B681343A3
:10207000FB60064AFB68536000BF1037BD4680BD59
:102080005454000870630008AC530008001002406C
:1020900080B400AF044B5B68DBB203F00C03DBB22F
:1020A0001846BD4680BC70470010024080B584B021
:1020B00000AF78600023FB607B68002B1ED07B683C
:1020C000802B1BD07B68902B18D07B68A02B15D061
:1020D0007B68B02B12D07B68C02B0FD07B68D02BD5
:1020E0000CD07B68E02B09D07B68F02B06D00C4B22
:1020F0000C4A40F265210C4801F0DEFB0B4B5B689B
:10210000FB60FB6823F0F003FB60FA687B68134315
:10211000FB60064AFB68536000BF1037BD4680BDB8
:102120007C54000884630008AC530008001002408F
:1021300080B584B000AF78600023FB607B68002B23
:1021400016D07B68B3F5806F12D07B68B3F5A06FB3
:102150000ED07B68B3F5C06F0AD07B68B3F5E06F33
:1021600006D00C4B0C4A40F27F210C4801F0A4FB36
:102170000B4B5B68FB60FB6823F4E063FB60FA6871
:102180007B681343FB60064AFB68536000BF10374F
:10219000BD4680BD9454000894630008AC53000809
:1021A0000010024080B584B000AF78600023FB606F
:1021B0007B68002B16D07B68B3F5806F12D07B68EC
:1021C000B3F5A06F0ED07B68B3F5C06F0AD07B6803
:1021D000B3F5E06F06D00D4B0D4A40F299210D4842
:1021E00001F06AFB0C4B5B68FB60FB6823F46053F7
:1021F000FB607B68DB00FA681343FB60064AFB6800
:10220000536000BF1037BD4680BD00BF9454000826
:10221000A4630008AC5300080010024080B584B0ED
:1022200000AF78600023FB607B68002B12D07B68D6
:10223000B3F5804F0ED07B68B3F5004F0AD07B68B2
:10224000B3F5404F06D00C4B0C4A40F203310C481A
:1022500001F032FB0B4B5B68FB60FB6823F44043EF
:10226000FB60FA687B681343FB60064AFB685360B7
:1022700000BF1037BD4680BDE8540008B4630008B5
:10228000AC5300080010024080B582B000AF786007
:102290000B46FB707B6823F4AA6323F00703002B33
:1022A00002D17B68002B06D1144B154A40F22C4119
:1022B000144801F001FBFB78002B09D0FB78012BBF
:1022C00006D0114B0E4A40F22D410E4801F0F4FAAF
:1022D000FB78002B06D00D4B5A690C497B681343E1
:1022E0004B6106E0094B5A697B68DB4307491340A1
:1022F0004B6100BF0837BD4680BD00BF4055000898
:10230000C8630008AC530008F453000800100240F2
:1023100080B582B000AF78600B46FB707A68184BCE
:102320001340002B02D17B68002B06D1154B164AB7
:1023300040F24B41154801F0BFFAFB78002B09D061
:10234000FB78012B06D0124B0F4A40F24C410F484C
:1023500001F0B2FAFB78002B06D00E4B9A690D49BA
:102360007B6813438B6106E00A4B9A697B68DB4309
:10237000084913408B6100BF0837BD4680BD00BFD0
:102380000200C0FF64550008E0630008AC53000879
:10239000F45300080010024080B586B000AF034639
:1023A000FB710023FB6000237B610023FB74FB793E
:1023B000212B24D0FB79312B21D0FB79392B1ED056
:1023C000FB79412B1BD0FB79612B18D0FB797A2B41
:1023D00015D0FB797B2B12D0FB797C2B0FD0FB79AE
:1023E0007D2B0CD0FB797E2B09D0FB797F2B06D07F
:1023F000184B194A40F23551184801F05DFAFB7943
:102400005B09DBB2FB60FB68012B03D1144B1B683B
:102410007B6109E0FB68022B03D1114B1B6A7B61D6
:1024200002E00F4B5B6A7B61FB7903F01F03FB60EB
:102430007A69FB6822FA03F303F00103002B02D050
:102440000123FB7401E00023FB74FB7C1846183762
:10245000BD4680BDC0550008F8630008AC530008B5
:102460000010024080B584B000AF7860396000236E
:10247000FB817B686B4A934245D07B68B3F1804F08
:1024800041D07B68684A93423DD07B68674A93425B
:1024900039D07B68664A934235D07B68654A93425F
:1024A00031D07B68644A93422DD07B68634A934263
:1024B00029D07B68624A934225D07B68614A934267
:1024C00021D07B68604A93421DD07B685F4A93426B
:1024D00019D07B685E4A934215D07B685D4A93426F
:1024E00011D07B685C4A93420DD07B685B4A934273
:1024F00009D07B685A4A934205D05A4B5A4AE82180
:102500005A4801F0D9F93B685B88002B15D03B682D
:102510005B88102B11D03B685B88202B0DD03B686B
:102520005B88402B09D03B685B88602B05D0504B03
:102530004D4AE9214D4801F0BFF93B68DB88002B8B
:102540000FD03B68DB88B3F5807F0AD03B68DB881F
:10255000B3F5007F05D0474B434AEA21434801F0D9
:10256000ABF97B681B88FB817B682E4A934213D0B2
:102570007B68324A93420FD07B68B3F1804F0BD017
:102580007B68294A934207D07B68284A934203D04C
:102590007B68274A934208D1FB8923F07003FB81B3
:1025A0003B685A88FB891343FB817B68214A93422D
:1025B0000CD07B68204A934208D0FB8923F44073F7
:1025C000FB813B68DA88FB891343FB817B68FA89CE
:1025D0001A803B689A887B689A853B681A887B6872
:1025E0001A857B680F4A93420FD07B68134A934247
:1025F0000BD07B68184A934207D07B68174A9342F6
:1026000003D07B68164A934204D13B681B7A9AB286
:102610007B681A867B6801229A8200BF1037BD460C
:1026200080BD00BF002C01400004004000080040B5
:10263000000C004000100040001400400034014035
:10264000004C01400050014000540140001800407F
:10265000001C0040002000400040014000440140B8
:1026600000480140085600080C6400082056000885
:10267000385600087856000880B584B000AF7860FE
:10268000396000237B810023FB810023BB817B68B1
:102690007E4A93423ED07B68B3F1804F3AD07B684C
:1026A0007B4A934236D07B687A4A934232D07B6829
:1026B000794A93422ED07B68784A93422AD07B682D
:1026C000774A934226D07B68764A934222D07B6831
:1026D000754A93421ED07B68744A93421AD07B6835
:1026E000734A934216D07B68724A934212D07B6839
:1026F000714A93420ED07B68704A93420AD07B683D
:102700006F4A934206D06F4B6F4A40F21D116F48DB
:1027100001F0D2F83B681B88002B1AD03B681B885D
:10272000102B16D03B681B88202B12D03B681B88CF
:10273000302B0ED03B681B88602B0AD03B681B886F
:10274000702B06D0624B604A4FF48F715F4801F0E6
:10275000B3F83B685B88002B0AD03B685B88012B91
:1027600006D05C4B584A40F21F11584801F0A4F8BB
:102770003B681B89002B0AD03B681B89022B06D0C3
:10278000554B514A4FF49071504801F095F87B68D1
:102790001B8C9BB223F001039AB27B681A847B687E
:1027A0001B8CFB817B689B88BB817B681B8B7B813F
:1027B0007B8923F070037B817B8923F003037B817A
:1027C0003B681A887B8913437B81FB8923F00203D2
:1027D000FB813B681A89FB891343FB813B685A885C
:1027E000FB891343FB817B68284A934210D07B68A6
:1027F0002A4A93420CD07B682F4A934208D07B68C8
:102800002E4A934204D07B682D4A934240F0928036
:102810003B689B88002B0AD03B689B88042B06D022
:102820002E4B294A40F23D11284801F045F83B68FB
:102830005B89002B0AD03B685B89082B06D0284BAC
:10284000214A4FF49F71214801F036F83B68DB893B
:10285000B3F5007F0AD03B68DB89002B06D0214B03
:10286000194A40F23F11194801F026F83B689B894C
:10287000B3F5807F3AD03B689B89002B36D01A4B4A
:10288000114A4FF4A071114801F016F8002C0140D4
:102890000004004000080040000C004000340140EB
:1028A000004C01400050014000540140001800401D
:1028B000001C004000200040004001400044014056
:1028C00000480140B4560008206400082056000863
:1028D000D056000800570008385700087057000805
:1028E000AC570008E457000820580008FB8923F083
:1028F0000803FB813B685A89FB891343FB81FB89F1
:1029000023F00403FB813B689A88FB891343FB8116
:10291000BB8923F48073BB81BB8923F40073BB8123
:102920003B689A89BB891343BB813B68DA89BB89C1
:102930001343BB817B68BA899A807B687A891A8342
:102940003B68DA887B689A867B68FA891A8400BFBC
:102950001037BD4680BD00BF80B584B000AF786041
:10296000396000237B810023FB810023BB817B68CE
:102970008D4A934226D07B68B3F1804F22D07B688A
:102980008A4A93421ED07B68894A93421AD07B6858
:10299000884A934216D07B68874A934212D07B685C
:1029A000864A93420ED07B68854A93420AD07B6860
:1029B000844A934206D0844B844A4FF4B8718448C9
:1029C00000F07AFF3B681B88002B1AD03B681B88FD
:1029D000102B16D03B681B88202B12D03B681B881D
:1029E000302B0ED03B681B88602B0AD03B681B88BD
:1029F000702B06D0774B754A40F27111744800F085
:102A00005BFF3B685B88002B0AD03B685B88012B2F
:102A100006D0714B6D4A4FF4B9716D4800F04CFF10
:102A20003B681B89002B0AD03B681B89022B06D010
:102A30006A4B664A40F27311654800F03DFF7B68BF
:102A40001B8C9BB223F010039AB27B681A847B68BC
:102A50001B8CFB817B689B88BB817B681B8B7B818C
:102A60007B8923F4E0437B817B8923F440737B8162
:102A70003B681B881B029AB27B8913437B81FB89CD
:102A800023F02003FB813B681B891B019AB2FB8961
:102A90001343FB813B685B881B019AB2FB8913439C
:102AA000FB817B68404A934203D07B68424A934251
:102AB00069D13B689B88002B0AD03B689B88042B1C
:102AC00006D0474B414A4FF4C871414800F0F4FE2C
:102AD0003B685B89002B0AD03B685B89082B06D0DA
:102AE000404B3A4A40F29111394800F0E5FE3B680C
:102AF000DB89B3F5007F0AD03B68DB89002B06D069
:102B0000394B324A4FF4C971314800F0D5FE3B6869
:102B10009B89B3F5807F0AD03B689B89002B06D048
:102B2000324B2A4A40F29311294800F0C5FEFB8936
:102B300023F08003FB813B685B891B019AB2FB8910
:102B40001343FB81FB8923F04003FB813B689B8897
:102B50001B019AB2FB891343FB81BB8923F4806379
:102B6000BB81BB8923F40063BB813B689B899B00CD
:102B70009AB2BB891343BB813B68DB899B009AB245
:102B8000BB891343BB817B68BA899A807B687A8949
:102B90001A833B68DA887B681A877B68FA891A840B
:102BA00000BF1037BD4680BD002C0140000400402E
:102BB00000080040000C004000340140004C01407F
:102BC0000018004000400140585800082C640008DC
:102BD00020560008D0560008005700083857000853
:102BE00070570008AC570008E45700082058000848
:102BF00080B584B000AF7860396000237B8100230A
:102C0000FB810023BB817B68864A93421AD07B6894
:102C1000B3F1804F16D07B68834A934212D07B6811
:102C2000824A93420ED07B68814A93420AD07B68E5
:102C3000804A934206D0804B804A4FF4E17180482D
:102C400000F03AFE3B681B88002B1AD03B681B88BB
:102C5000102B16D03B681B88202B12D03B681B889A
:102C6000302B0ED03B681B88602B0AD03B681B883A
:102C7000702B06D0734B714A40F2C311704800F0BC
:102C80001BFE3B685B88002B0AD03B685B88012BEE
:102C900006D06D4B694A4FF4E271694800F00CFEB2
:102CA0003B681B89002B0AD03B681B89022B06D08E
:102CB000664B624A40F2C511614800F0FDFD7B6839
:102CC0001B8C9BB223F480739AB27B681A847B6856
:102CD0001B8CFB817B689B88BB817B689B8B7B818A
:102CE0007B8923F070037B817B8923F003037B8145
:102CF0003B681A887B8913437B81FB8923F400732B
:102D0000FB813B681B891B029AB2FB891343FB8141
:102D10003B685B881B029AB2FB891343FB817B688B
:102D2000404A934203D07B68424A934269D13B6850
:102D30009B88002B0AD03B689B88042B06D0444B11
:102D40003E4A40F2E1113E4800F0B6FD3B685B8927
:102D5000002B0AD03B685B89082B06D03D4B374AD5
:102D60004FF4F171364800F0A7FD3B68DB89B3F5FD
:102D7000007F0AD03B68DB89002B06D0364B2F4AF8
:102D800040F2E3112E4800F097FD3B689B89B3F5B4
:102D9000807F0AD03B689B89002B06D02F4B274AA7
:102DA0004FF4F271264800F087FDFB8923F400639D
:102DB000FB813B685B891B029AB2FB891343FB8151
:102DC000FB8923F48063FB813B689B881B029AB2DA
:102DD000FB891343FB81BB8923F48053BB81BB89EF
:102DE00023F40053BB813B689B891B019AB2BB89CA
:102DF0001343BB813B68DB891B019AB2BB89134338
:102E0000BB817B68BA899A807B687A899A833B68A0
:102E1000DA887B689A877B68FA891A8400BF103742
:102E2000BD4680BD002C0140000400400008004069
:102E3000000C004000340140745800083864000859
:102E400020560008D05600080057000838570008E0
:102E500070570008AC570008E457000820580008D5
:102E600080B582B000AF786039607B68524A934287
:102E700016D07B68514A934212D07B68504A9342E5
:102E80000ED07B684F4A93420AD07B684E4A9342E9
:102E900006D04E4B4E4A4FF433714E4800F00CFDB5
:102EA0003B681B88B3F5006F0AD03B681B88002B7A
:102EB00006D0494B464A40F2CD21464800F0FCFC82
:102EC0003B685B88B3F5806F0AD03B685B88002B5A
:102ED00006D0424B3E4A40F2CE213E4800F0ECFC88
:102EE0003B689B88002B15D03B689B88B3F5807F9F
:102EF00010D03B689B88B3F5007F0BD03B689B8864
:102F0000B3F5407F06D0364B314A40F2CF213148ED
:102F100000F0D2FC3B681B89B3F5805F0AD03B68A8
:102F20001B89002B06D02F4B294A4FF434712948B6
:102F300000F0C2FC3B685B89002B0BD03B685B89CF
:102F4000B3F5005F06D0284B214A40F2D121214839
:102F500000F0B2FC3B689B89B3F5804F0AD03B6818
:102F60009B89002B06D0214B194A40F2D2211948E7
:102F700000F0A2FC3B681A883B685B8813439AB256
:102F80003B689B8813439AB23B68DB8813439AB231
:102F90003B681B8913439AB23B685B8913439AB21F
:102FA0003B689B8913439AB27B68A3F8442000BF17
:102FB0000837BD4680BD00BF002C014000340140F1
:102FC000004001400044014000480140D859000839
:102FD0004464000820560008F45900082C5A0008E0
:102FE000645A00089C5A0008D05A0008105B000878
:102FF00080B582B000AF78600B46FB707B68374AC3
:10300000934246D07B68B3F1804F42D07B68344A0C
:1030100093423ED07B68334A93423AD07B68324A2F
:10302000934236D07B68314A934232D07B68304A33
:1030300093422ED07B682F4A93422AD07B682E4A37
:10304000934226D07B682D4A934222D07B682C4A3B
:1030500093421ED07B682B4A93421AD07B682A4A3F
:10306000934216D07B68294A934212D07B68284A43
:1030700093420ED07B68274A93420AD07B68264A47
:10308000934206D0254B264A40F22A31254800F0CB
:1030900013FCFB78002B09D0FB78012B06D0224BC8
:1030A0001F4A40F22B311F4800F006FCFB78002B32
:1030B00008D07B681B889BB243F001039AB27B68FF
:1030C0001A8007E07B681B889BB223F001039AB249
:1030D0007B681A8000BF0837BD4680BD002C0140C8
:1030E0000004004000080040000C004000100040B8
:1030F0000014004000340140004C014000500140E9
:103100000054014000180040001C00400020004016
:1031100000400140004401400048014008560008BA
:103120005464000820560008585B000880B582B03F
:1031300000AF78600B46FB707B68224A934216D042
:103140007B68214A934212D07B68204A93420ED07A
:103150007B681F4A93420AD07B681E4A934206D07E
:103160001D4B1E4A40F243311D4800F0A5FBFB7881
:10317000002B09D0FB78012B06D01A4B174A4FF4CD
:103180005171174800F098FBFB78002B0CD07B683E
:10319000B3F844309BB26FEA43436FEA53439AB2A9
:1031A0007B68A3F8442009E07B68B3F844309BB205
:1031B000C3F30E039AB27B68A3F8442000BF08371C
:1031C000BD4680BD002C014000340140004001405C
:1031D0000044014000480140D85900085C640008E0
:1031E00020560008585B000880B584B000AF7860B6
:1031F0000B467B8013463B800023FB817B68404A63
:1032000093423ED07B68B3F1804F3AD07B683D4A11
:10321000934236D07B683C4A934232D07B683B4A2B
:1032200093422ED07B683A4A93422AD07B68394A2F
:10323000934226D07B68384A934222D07B68374A33
:1032400093421ED07B68364A93421AD07B68354A37
:10325000934216D07B68344A934212D07B68334A3B
:1032600093420ED07B68324A93420AD07B68314A3F
:10327000934206D0304B314A40F2BC71304800F0E6
:103280001BFB7B88002B0FD07B88042B0CD07B880A
:10329000082B09D07B880C2B06D02A4B274A40F2FA
:1032A000BD71274800F008FB3B88012B09D03B8803
:1032B000002B06D0244B214A40F2BE71204800F07A
:1032C000FBFA7B88012202FA03F3FB817B681B8CEB
:1032D0009AB2FB89DB439BB213409AB27B681A8493
:1032E0007B681B8C9AB239887B8801FA03F39BB206
:1032F00013439AB27B681A8400BF1037BD4680BD65
:10330000002C01400004004000080040000C004078
:1033100000340140004C0140005001400054014085
:1033200000180040001C0040002000400040014008
:103330000044014000480140B45600087064000891
:1033400020560008885F0008A45F000880B584B09C
:1033500000AF78600B467B8013463B800023FB81E7
:103360007B682B4A934216D07B682A4A934212D03C
:103370007B68294A93420ED07B68284A93420AD040
:103380007B68274A934206D0264B274A40F2DA71DF
:10339000264800F091FA7B88002B0CD07B88042B08
:1033A00009D07B88082B06D0214B1F4A40F2DB71E5
:1033B0001E4800F081FA3B88042B09D03B88002B83
:1033C00006D01C4B184A40F2DC71184800F074FA21
:1033D0007B88042202FA03F3FB817B681B8C9AB280
:1033E000FB89DB439BB213409AB27B681A847B68EB
:1033F0001B8C9AB239887B8801FA03F39BB2134382
:103400009AB27B681A8400BF1037BD4680BD00BFEA
:10341000002C0140003401400040014000440140C4
:1034200000480140D85900087C6400082056000874
:10343000B85F0008E45F000880B584B000AF786032
:103440000B467B8013463B800023FB6000237B817F
:103450007B685F4A93423ED07B68B3F1804F3AD09D
:103460007B685C4A934236D07B685B4A934232D099
:103470007B685A4A93422ED07B68594A93422AD09D
:103480007B68584A934226D07B68574A934222D0A1
:103490007B68564A93421ED07B68554A93421AD0A5
:1034A0007B68544A934216D07B68534A934212D0A9
:1034B0007B68524A93420ED07B68514A93420AD0AD
:1034C0007B68504A934206D04F4B504A40F6040165
:1034D0004F4800F0F1F97B88002B0FD07B88042B3C
:1034E0000CD07B88082B09D07B880C2B06D0494B4D
:1034F000464A40F60501464800F0DEF93B88002BBD
:103500001BD03B88102B18D03B88202B15D03B8834
:10351000302B12D03B88602B0FD03B88702B0CD007
:103520003B88502B09D03B88402B06D03A4B374A7A
:1035300040F60601364800F0BFF97B68FB60FB6887
:103540001833FB607B88012202FA03F37B817B68DE
:103550001B8C9AB27B89DB439BB213409AB27B6887
:103560001A847B88002B02D07B88082B13D17B88A0
:103570005B089BB21A46FB681344FB60FB681A6841
:10358000FB6822F070021A60FB6819683A88FB68D1
:103590000A431A6018E07B88043B9BB25B089BB22D
:1035A0001A46FB681344FB60FB681A68FB6822F448
:1035B000E0421A60FB681A683B881B029BB21946FE
:1035C000FB680A431A6000BF00BF1037BD4680BDCC
:1035D000002C01400004004000080040000C0040A6
:1035E00000340140004C01400050014000540140B3
:1035F00000180040001C0040002000400040014036
:103600000044014000480140B456000888640008A6
:1036100020560008885F0008FC5F000880B485B071
:1036200000AF78600A4B1B68002B02D1084B094A97
:103630001A60074B1B68FB60054B1A687B681344D4
:10364000034A1360FB6818461437BD4680BC7047B8
:1036500090000020A800002080B483B000AF786004
:103660004FF0FF3318460C37BD4680BC704780B41E
:1036700083B000AF786039603B684FF400525A6005
:10368000002318460C37BD4680BC704780B483B019
:1036900000AF7860012318460C37BD4680BC7047E8
:1036A00080B485B000AFF860B9607A600023184636
:1036B0001437BD4680BC704780B485B000AFF86059
:1036C000B9607A607B6818461437BD4680BC704785
:1036D00080B485B000AFF860B9607A607B68184646
:1036E0001437BD4680BC704780B400AFFEE70000D1
:1036F00080B500AF154B1B68144A43F001031360FB
:10370000124B5A681149124B13404B600F4B1B6808
:103710000E4A23F0847323F4803313600B4B1B6831
:103720000A4A23F480231360084B5B68074A23F49A
:10373000FE035360054B4FF41F029A6000F00CF833
:10374000044B4FF000629A6000BF80BD0010024041
:103750000000FFF800ED00E080B500AF00F002F8D7
:1037600000BF80BD80B483B000AF00237B60002326
:103770003B603A4B1B68394A43F480331360374B44
:103780001B6803F400333B607B6801337B603B685C
:10379000002B03D17B68B3F5A06FF0D12F4B1B68D2
:1037A00003F40033002B02D001233B6001E000232F
:1037B0003B603B68012B4BD1294B1B68284A43F0E7
:1037C00010031360264B1B68254A23F00303136084
:1037D000234B1B68224A43F0020313601F4B1F4A0E
:1037E0005B6853601D4B1D4A5B6853601B4B5B68F5
:1037F0001A4A43F480635360184B5B68174A23F4FA
:103800007C135360154B5B68144A43F4E813536010
:10381000124B1B68114A43F08073136000BF0F4BBB
:103820001B6803F00073002BF9D00C4B5B680B4A4C
:1038300023F003035360094B5B68084A43F002031B
:10384000536000BF054B5B6803F00C03082BF9D1F4
:1038500000BF0C37BD4680BC704700BF001002405F
:10386000002002400D488546FFF742FF0C480D49F5
:103870000D4A002302E0D458C4500433C4188C42CB
:10388000F9D30A4A0A4C002301E013600432A24231
:10389000FBD300F041F8FCF785FFFEE70050002065
:1038A0000000002068000020746500086800002007
:1038B000A4000020FEE700001FB514461A46094B7D
:1038C00005461B68D8684CB1074BCDE9013400911F
:1038D0002B46064900F00EF8FFF706FF044B1C4686
:1038E000F3E700BF0400002097640008A464000808
:1038F000D26400080EB403B5014603AB054853F883
:10390000042B0068019300F05BF802B05DF804EB53
:1039100003B070470400002070B500260C4D0D4C1C
:10392000641BA410A64209D100F09EFF00260A4D98
:103930000A4C641BA410A64205D170BD55F8043B87
:1039400098470136EEE755F8043B98470136F2E711
:103950006C6500086C6500086C65000870650008FF
:1039600003460244934200D1704703F8011BF9E774
:10397000936810B4013B002B936007DA9469A3426B
:1039800001DB0A2902D110BC00F0E0BA1368581C10
:1039900010601970084610BC7047F8B506460F460F
:1039A0001446D518AC4201D1002007E03A46304613
:1039B00014F8011BFFF7DCFF431CF3D1F8BD000036
:1039C0002DE9F04F0D461446984606469DB018B1B5
:1039D00083690BB900F090FC894B9D421BD175683F
:1039E0006B6ED90705D4AB899A0502D4A86D00F097
:1039F00021FDAB891B0701D52B69EBB92946304660
:103A000000F0F6FAC0B16B6EDC070ED54FF0FF3058
:103A10001DB0BDE8F08F7B4B9D4201D1B568DFE75B
:103A2000794B9D4208BFF568DAE7AB899805EDD47C
:103A3000A86D00F000FDE9E70023099320238DF82D
:103A4000293030234FF00109CDF80C80DFF8BC811C
:103A50008DF82A3023469A4613F8012B0AB1252AFD
:103A6000F9D1BAEB040B0BD05B462246294630460F
:103A7000FFF793FF013000F0AA80099A5A44099297
:103A80009AF80030002B00F0A28000234FF0FF32A4
:103A9000CDE905230AF1010A049307938DF8533009
:103AA0001A935446052214F8011B584800F02AFDC9
:103AB000049AD8B9D10644BF20238DF85330130798
:103AC00044BF2B238DF853309AF800302A2B15D0A1
:103AD000544600204FF00A0C079A214611F8013B8A
:103AE000303B092B4ED9B0B1079214E0A0EB08038C
:103AF00009FA03F31343A2460493D2E7039B191D6B
:103B00001B680391002BBBBF5B4242F0020207938C
:103B10000793B8BF049223782E2B0CD163782A2BFD
:103B200035D1039B02341A1D1B680392002BB8BFCA
:103B30004FF0FF330593DFF8D8A0032250462178D9
:103B400000F0E0FC40B14023A0EB0A0003FA00F0D3
:103B5000049B01340343049314F8011B06222D48EF
:103B60008DF8281000F0CEFC00283FD02A4B1BBB5C
:103B7000039B073323F0070308330393099B3B445C
:103B8000099367E70C4601200CFB0232A5E70023EE
:103B90004FF00A0C194601340593204610F8012B0A
:103BA000303A092A03D9002BC5D00591C3E7044652
:103BB00001230CFB0121F0E703AB00932A463046BA
:103BC000164B04A9AFF300800746781CD6D16B6E64
:103BD000D90705D4AB899A0502D4A86D00F02BFC57
:103BE000AB895B063FF512AF099811E703AB009371
:103BF0002A463046094B04A900F082F8E4E700BFEA
:103C00002C6500084C6500080C650008D8640008A5
:103C1000DE640008E2640008000000009B39000830
:103C20002DE9F047164699468A680B690746934284
:103C3000B8BF1346336091F843200C46DDF820806E
:103C40000AB1013333602368990642BF33680233F7
:103C50003360256815F0060506D104F1190AE368FA
:103C600032689B1AAB4228DC94F84320131E22686A
:103C700018BF012392062DD44946384604F1430269
:103C8000C047013020D02368E56803F00603042B09
:103C900018BF002532684FF00006A36808BFAD1AB0
:103CA000226908BF25EAE5759342C4BF9B1AED1847
:103CB0001A34B5421AD1002008E001235246494681
:103CC0003846C047013003D14FF0FF30BDE8F087E0
:103CD0000135C4E73020E11881F843005A1C94F8FC
:103CE00045102244023382F84310C5E701232246DF
:103CF00049463846C0470130E6D00136D9E70000D2
:103D00002DE9FF470F7E9146782F80460C469A4654
:103D10000C9D01F1430207D8622F0AD8002F00F052
:103D2000D980582F00F0A48004F1420584F8427035
:103D30003AE0A7F16303152BF6D801A151F823F05F
:103D4000993D0008AD3D0008293D0008293D0008C7
:103D5000293D0008293D0008AD3D0008293D000827
:103D6000293D0008293D0008293D0008BB3E000808
:103D7000DD3D00089D3E0008293D0008293D000862
:103D8000DD3E0008293D0008DD3D0008293D000812
:103D9000293D0008A53E00082B681A1D1B682A60F3
:103DA00004F1420584F842300123A4E02068296828
:103DB000060601F104030AD50E682B60002E03DA13
:103DC0002D23764284F843300A235E4819E00E68BA
:103DD00010F0400F2B6018BF36B2EFE72B68206859
:103DE000191D2960010601D51E6802E04606FBD5B3
:103DF0001E886F2F0CBF08230A235248002184F825
:103E000043106568002DA8BF2168A560A4BF21F0FC
:103E1000040121600EB9002D4DD01546B6FBF3F11B
:103E200003FB1167C75D05F8017D3746BB420E46AF
:103E3000F4D9082B0BD12368DE0708D52369616804
:103E40009942DEBF302305F8013C05F1FF35521BD6
:103E500022614B4621464046CDF800A003AAFFF759
:103E6000DFFE01304CD14FF0FF3004B0BDE8F087E9
:103E7000344881F845702968236851F8046B29603B
:103E80001D0614D5DF0744BF43F0200323601EB98D
:103E9000236823F0200323601023AFE7236843F057
:103EA000200323607823284884F84530E3E7590647
:103EB00048BFB6B2E6E71546BBE72B682668181D73
:103EC0006169286035061B6801D5196002E070063B
:103ED000FBD51980002315462361BAE72B68002122
:103EE0001A1D2A601D686268284600F00BFB08B1A5
:103EF000401B606063682361002384F84330A8E7B7
:103F00002A46494640462369D0470130ABD0236852
:103F10009B0713D4E068039B9842B8BF1846A4E7F8
:103F20000123324649464046D04701309BD00135F7
:103F3000E36803995B1AAB42F2DCEBE7002504F17E
:103F40001906F5E7E9640008FA640008F8B50E46BA
:103F50001446054618B183690BB900F0CDF9214B21
:103F60009C422BD16C68A369A360A3891A072FD543
:103F700023696BB323692068F6B2C01A63693746B8
:103F8000834204DC2146284600F022F930BBA368B6
:103F90000130013BA36023685A1C22601E706369D4
:103FA000834204D0A389DB0706D50A2E04D121461B
:103FB000284600F00DF988B93846F8BD0A4B9C42F6
:103FC00001D1AC68CFE7094B9C4208BFEC68CAE757
:103FD0002146284600F00CF80028CBD04FF0FF37E0
:103FE000EAE700BF2C6500084C6500080C65000876
:103FF000324B70B51D6806460C4625B1AB6913B946
:10400000284600F079F92E4B9C420FD16C68A389A9
:10401000B4F90C2019072CD4DD0611D40923336020
:1040200042F040034FF0FF30A3813EE0254B9C421D
:1040300001D1AC68EBE7244B9C4208BFEC68E6E793
:10404000580712D5616B41B104F14403994202D083
:10405000304600F065FA00236363A38923F024034C
:10406000A3810023636023692360A38943F00803CD
:10407000A38123694BB9A38903F42073B3F5007FAF
:1040800003D02146304600F0FDF9A089B4F90C2098
:1040900010F001030AD00023A36063695B42A361AF
:1040A000236943B910F08000BAD170BD810758BFB1
:1040B0006369A360F4E70020F7E700BF0400002075
:1040C0002C6500084C6500080C6500088A89F8B565
:1040D000054610070C4657D44B68002B04DC0B6CCC
:1040E000002B01DC0020F8BDE66A002EFAD0002388
:1040F00012F480522F682B6032D0606DA3895A076A
:1041000005D56368C01A636B0BB1236CC01A00231A
:104110000246E66A2846216AB047431CA38906D1B5
:1041200029681D292CD8294ACA40D60728D500223B
:1041300062602269D904226004D5421C01D12B6837
:1041400003B96065616B2F600029CBD004F1440393
:10415000994202D0284600F0E3F900206063C2E7EC
:10416000216A01232846B047411CC7D12B68002B88
:10417000C4D01D2B01D0162B01D12F60B2E7A3892B
:1041800043F04003A381AEE70F69002FAAD0930745
:1041900018BF00230E6808BF4B69F61B0F608B60C9
:1041A000002E9FDD33463A462846216AD4F828C0BF
:1041B000E047002806DCA3894FF0FF3043F04003BE
:1041C000A38190E70744361AEAE700BF01004020C8
:1041D00038B50B6905460C4613B90025284638BD8D
:1041E00018B183690BB900F087F8144B9C421BD1BE
:1041F0006C68B4F90C30002BEFD0626ED00704D499
:10420000990502D4A06D00F015F928462146FFF764
:104210005DFF636E0546DA07E0D4A3899B05DDD414
:10422000A06D00F008F9D9E7054B9C4201D1AC68BC
:10423000DFE7044B9C4208BFEC68DAE72C65000816
:104240004C6500080C650008002310B50446C0E961
:104250000033C0E90433836081814366C281836196
:10426000194608225C30FFF77BFB054B2462636232
:10427000044BA362044BE362044B236310BD00BFF5
:10428000F94600081B470008534700087747000815
:10429000014900F0AFB800BFD1410008682270B5F5
:1042A0004D1E55430E4605F1740100F0A1F9044678
:1042B00040B10021C0E900160C30A06005F1680291
:1042C000FFF74EFB204670BD014800F0B3B800BFB9
:1042D00095000020014800F0AEB800BF9500002016
:1042E000014800F0A7B800BF96000020014800F088
:1042F000A2B800BF9600002010B50446FFF7F0FFFB
:10430000A3691BB1BDE81040FFF7F0BFC4E9123349
:104310002365134B134A1B68A262A34208BF012303
:10432000204608BFA36100F01FF86060204600F03F
:104330001BF8A060204600F017F800220421E0607E
:104340006068FFF781FF01220921A068FFF77CFF69
:1043500002221221E068FFF777FF0123A361D1E772
:10436000D464000891420008F8B50746FFF7ACFF97
:104370001E4B1E68B36913B93046FFF7BDFF4836C0
:10438000D6E90134013B03D533680BB33668F7E750
:10439000B4F90C50D5B9164B04F15800E3606566CA
:1043A00000F047F8FFF796FF08222946C4E90155B7
:1043B000C4E904552560A56104F15C00FFF7D0FA5B
:1043C000C4E90D55C4E912552046F8BD6834D9E753
:1043D00004213846FFF762FF044630600028D5D13B
:1043E000FFF778FF0C233B60EEE700BFD4640008C2
:1043F0000100FFFF2DE9F84306468846002700F13B
:104400004804D4E90195B9F1010905D52468002CC7
:10441000F7D13846BDE8F883AB89012B07D9B5F948
:104420000E30013303D029463046C0470743683574
:10443000E9E770477047704770B50E46B1F90E1046
:10444000144600291D4696B008DA0022B6F90C3051
:104450002A601A0610D44FF480630EE06A4600F01A
:10446000B1F90028F1DB019A02F47042A2F5005381
:104470005A425A412A60EEE740230020236016B0DA
:1044800070BD00008B8973B59D0706460C4607D5A5
:1044900004F14703236023610123636102B070BD0F
:1044A0006A4601ABFFF7C8FF00990546304600F0A9
:1044B0009FF848B9B4F90C309A05EFD423F0030300
:1044C00043F00203A381E3E70D4BB362A3892060AD
:1044D00043F08003A381009B20616361019B5BB17A
:1044E0003046B4F90E1000F07FF928B1A38923F00B
:1044F000030343F00103A381A0890543A581CDE710
:1045000091420008034610B5C9B2024493421846CE
:1045100001D1002003E0047801338C42F6D110BDB4
:1045200038B50546002940D051F8043C0C1F002B3B
:10453000B8BFE41800F07AF91C4A136833B9636015
:1045400014602846BDE8384000F076B9A34208D987
:10455000206821188B4201BF19685B680918216027
:10456000EDE71A465B680BB1A342FAD911685018FF
:10457000A0420BD120680144501883421160E0D161
:1045800018685B68014411605360DAE702D90C23B4
:104590002B60D6E7206821188B4201BF19685B6841
:1045A0000918216063605460CBE738BD9800002093
:1045B00070B50E4E0C463168054611B900F08CF806
:1045C00030602146284600F087F8431C0AD0C41CFE
:1045D00024F00304A04207D0211A284600F07CF8FA
:1045E000013001D14FF0FF34204670BD9C00002007
:1045F0002DE9F041CD1C25F0030508350C2D38BF01
:104600000C25002D074601DBA94205D90C23002605
:104610003B603046BDE8F0812E4E00F007F933686C
:104620001C4634BB29463846FFF7C2FF431C0446EC
:104630004DD134682646002E40D123683146384695
:1046400004EB030800F048F880453AD121680335AF
:104650006D1A25F0030508350C2D38BF0C2538469A
:104660002946FFF7A5FF01302BD023682B44236098
:104670000EE02268521B1ED40B2A16D96119A342E0
:10468000256018BF5960636808BF316062514B6094
:10469000384604F10B0600F0CFF826F00706231D7C
:1046A000F21AB6D09B1BA350B3E76268A3420CBFBB
:1046B00032605A60ECE723466468B2E734467668B5
:1046C000B9E70C2338463B6000F0B6F8A1E7256057
:1046D000DEE700BF9800002038B50023054D0446F2
:1046E00008462B60FEF79AFF431C02D12B6803B1EA
:1046F000236038BDA000002010B50C46B1F90E10A3
:1047000000F0A0F80028ABBF636DA3891B1823F449
:104710008053ACBF6365A38110BD2DE9F0411F46F6
:104720008B890546DB050C46164605D5022300227B
:10473000B1F90E1000F068F8A389324623F48053D3
:10474000A38128463B46B4F90E10BDE8F04100F0C5
:1047500017B810B50C46B1F90E1000F055F8431C0F
:10476000A38915BF606523F4805343F48053A3816C
:1047700018BFA38110BDB1F90E1000F013B80000EE
:1047800038B50446084611460022054D2A601A46EF
:10479000FEF79EFF431C02D12B6803B1236038BD96
:1047A000A000002038B50023054D044608462B60C4
:1047B000FEF752FF431C02D12B6803B1236038BDC2
:1047C000A000002038B50023064D044608461146D7
:1047D0002B60FEF74CFF431C02D12B6803B1236012
:1047E00038BD00BFA000002038B50023054D0446A9
:1047F00008462B60FEF74AFF431C02D12B6803B129
:10480000236038BDA000002038B504460846114694
:104810000022054D2A601A46FEF742FF431C02D1D2
:104820002B6803B1236038BDA00000200148FFF7CA
:1048300001BE00BF940000200148FFF7FCBD00BF8F
:104840009400002038B50446084611460022054D64
:104850002A601A46FEF730FF431C02D12B6803B1D1
:10486000236038BDA0000020F8B500BFF8BC08BC2C
:104870009E467047F8B500BFF8BC08BC9E4670471E
:1048800049535F4E5649435F5052494F524954591C
:104890005F47524F5550284E5649435F5072696FDB
:1048A0007269747947726F75702900002E2E2F532C
:1048B00072632F6D6973632E6300000049535F4676
:1048C000554E4354494F4E414C5F53544154452833
:1048D0004E5649435F496E69745374727563742D03
:1048E0003E4E5649435F4952514368616E6E656C56
:1048F000436D64290000000049535F4E5649435FF1
:10490000505245454D5054494F4E5F5052494F52B9
:10491000495459284E5649435F496E69745374721D
:104920007563742D3E4E5649435F49525143686149
:104930006E6E656C507265656D7074696F6E5072E5
:10494000696F72697479290049535F4E5649435F14
:104950005355425F5052494F52495459284E564977
:10496000435F496E69745374727563742D3E4E567D
:1049700049435F4952514368616E6E656C5375627D
:104980005072696F726974792900000049535F4E53
:104990005649435F56454354544142284E56494375
:1049A0005F566563745461622900000049535F4E8D
:1049B0005649435F4F4646534554284F66667365D4
:1049C0007429000049535F4E5649435F4C50284CB0
:1049D0006F77506F7765724D6F6465290000000036
:1049E00049535F46554E4354494F4E414C5F5354D3
:1049F000415445284E657753746174652900000061
:104A000049535F5359535449434B5F434C4B5F5396
:104A10004F55524345285379735469636B5F434C38
:104A20004B536F75726365290000000049535F4165
:104A300044435F414C4C5F504552495048284144E3
:104A4000437829002E2E2F5372632F73746D3332E7
:104A5000663130785F6164632E63000049535F41C3
:104A600044435F4D4F4445284144435F496E697458
:104A70005374727563742D3E4144435F4D6F64659A
:104A80002900000049535F46554E4354494F4E415B
:104A90004C5F5354415445284144435F496E697407
:104AA0005374727563742D3E4144435F5363616E6A
:104AB000436F6E764D6F64652900000049535F4671
:104AC000554E4354494F4E414C5F53544154452831
:104AD0004144435F496E69745374727563742D3E2B
:104AE0004144435F436F6E74696E756F7573436FB6
:104AF0006E764D6F6465290049535F4144435F45BD
:104B000058545F54524947284144435F496E697481
:104B10005374727563742D3E4144435F45787465E8
:104B2000726E616C54726967436F6E762900000083
:104B300049535F4144435F444154415F414C4947BD
:104B40004E284144435F496E6974537472756374AF
:104B50002D3E4144435F44617461416C69676E2935
:104B60000000000049535F4144435F524547554CA4
:104B700041525F4C454E475448284144435F496E7B
:104B800069745374727563742D3E4144435F4E6281
:104B9000724F664368616E6E656C290049535F46CB
:104BA000554E4354494F4E414C5F53544154452850
:104BB0004E657753746174652900000049535F4165
:104BC00044435F444D415F50455249504828414459
:104BD0004378290049535F4144435F495428414485
:104BE000435F49542900000049535F4144435F52E9
:104BF0004547554C41525F444953435F4E554D42E2
:104C00004552284E756D62657229000049535F4117
:104C100044435F4348414E4E454C284144435F4323
:104C200068616E6E656C290049535F4144435F5271
:104C30004547554C41525F52414E4B2852616E6B75
:104C40002900000049535F4144435F53414D504C9C
:104C5000455F54494D45284144435F53616D706C35
:104C60006554696D6529000049535F4144435F45C0
:104C700058545F494E4A45435F545249472841447E
:104C8000435F45787465726E616C54726967496EF2
:104C90006A6563436F6E76290000000049535F41E7
:104CA00044435F494E4A45435445445F52414E4B4D
:104CB0002852616E6B29000049535F4144435F49AC
:104CC0004E4A45435445445F4C454E475448284C52
:104CD000656E67746829000049535F4144435F492A
:104CE0004E4A45435445445F4348414E4E454C2847
:104CF0004144435F496E6A65637465644368616EED
:104D00006E656C290000000049535F4144435F4FCA
:104D10004646534554284F66667365742900000063
:104D200049535F4144435F414E414C4F475F5741B8
:104D3000544348444F47284144435F416E616C6F80
:104D4000675761746368646F6729000049535F4166
:104D500044435F5448524553484F4C442848696780
:104D6000685468726573686F6C64290049535F41C9
:104D700044435F5448524553484F4C44284C6F7746
:104D80005468726573686F6C6429000049535F4111
:104D900044435F4745545F464C4147284144435F85
:104DA000464C41472900000049535F4144435F435B
:104DB0004C4541525F464C4147284144435F464C75
:104DC0004147290049535F4144435F4745545F4988
:104DD00054284144435F49542900000049535F442B
:104DE0004D415F414C4C5F50455249504828444D1D
:104DF00041795F4368616E6E656C78290000000040
:104E00002E2E2F5372632F73746D333266313078C8
:104E10005F646D612E63000049535F444D415F4400
:104E2000495228444D415F496E69745374727563E9
:104E3000742D3E444D415F444952290049535F441B
:104E40004D415F4255464645525F53495A452844B5
:104E50004D415F496E69745374727563742D3E449D
:104E60004D415F42756666657253697A6529000037
:104E700049535F444D415F50455249504845524166
:104E80004C5F494E435F535441544528444D415F64
:104E9000496E69745374727563742D3E444D415F5D
:104EA0005065726970686572616C496E63290000B3
:104EB00049535F444D415F4D454D4F52595F494EF7
:104EC000435F535441544528444D415F496E6974D2
:104ED0005374727563742D3E444D415F4D656D6F23
:104EE0007279496E6329000049535F444D415F5018
:104EF00045524950484552414C5F444154415F53EB
:104F0000495A4528444D415F496E6974537472751E
:104F100063742D3E444D415F5065726970686572DF
:104F2000616C4461746153697A65290049535F4437
:104F30004D415F4D454D4F52595F444154415F5380
:104F4000495A4528444D415F496E697453747275DE
:104F500063742D3E444D415F4D656D6F72794461C0
:104F6000746153697A65290049535F444D415F4D2F
:104F70004F444528444D415F496E697453747275BE
:104F800063742D3E444D415F4D6F64652900000000
:104F900049535F444D415F5052494F52495459283B
:104FA000444D415F496E69745374727563742D3E4C
:104FB000444D415F5072696F726974792900000035
:104FC00049535F444D415F4D324D5F535441544509
:104FD00028444D415F496E69745374727563742D32
:104FE0003E444D415F4D324D2900000049535F461C
:104FF000554E4354494F4E414C5F535441544528FC
:105000004E657753746174652900000049535F440D
:105010004D415F434F4E4649475F495428444D41F7
:105020005F4954290000000049535F444D415F47E8
:1050300045545F464C414728444D41795F464C41B9
:105040004729000049535F444D415F434C4541525D
:105050005F464C414728444D41795F464C414729C2
:105060000000000049535F444D415F4745545F498C
:105070005428444D41795F495429000049535F4405
:105080004D415F434C4541525F495428444D41795D
:105090005F4954290000000049535F455854495F57
:1050A0004D4F444528455854495F496E69745374BF
:1050B000727563742D3E455854495F4D6F64652980
:1050C000000000002E2E2F5372632F73746D333245
:1050D000663130785F657874692E630049535F45A7
:1050E0005854495F545249474745522845585449F6
:1050F0005F496E69745374727563742D3E455854DC
:10510000495F5472696767657229000049535F45BA
:105110005854495F4C494E4528455854495F496E9B
:1051200069745374727563742D3E455854495F4CCD
:10513000696E65290000000049535F46554E43548F
:10514000494F4E414C5F53544154452845585449AA
:105150005F496E69745374727563742D3E4558547B
:10516000495F4C696E65436D6429000049535F4592
:105170005854495F4C494E4528455854495F4C693D
:105180006E65290049535F4745545F455854495F50
:105190004C494E4528455854495F4C696E65290075
:1051A00049535F4750494F5F414C4C5F504552490E
:1051B0005048284750494F78290000002E2E2F5381
:1051C00072632F73746D3332663130785F67706944
:1051D0006F2E630049535F4750494F5F4D4F444521
:1051E000284750494F5F496E6974537472756374F0
:1051F0002D3E4750494F5F4D6F6465290000000008
:1052000049535F4750494F5F50494E284750494FD7
:105210005F496E69745374727563742D3E475049CB
:105220004F5F50696E29000049535F4750494F5FF7
:105230005350454544284750494F5F496E69745360
:1052400074727563742D3E4750494F5F53706565A6
:105250006429000049535F4745545F4750494F5FF9
:1052600050494E284750494F5F50696E2900000051
:1052700049535F4750494F5F50494E284750494F67
:105280005F50696E2900000049535F4750494F5FE6
:105290004249545F414354494F4E28426974566114
:1052A0006C29000049535F4750494F5F4556454EB2
:1052B000544F55545F504F52545F534F55524345CE
:1052C000284750494F5F506F7274536F7572636512
:1052D0002900000049535F4750494F5F50494E5FD6
:1052E000534F55524345284750494F5F50696E53BD
:1052F0006F7572636529000049535F46554E4354EC
:10530000494F4E414C5F5354415445284E657753A5
:10531000746174652900000049535F4750494F5F2D
:1053200052454D4150284750494F5F52656D61705D
:105330002900000049535F4750494F5F4558544981
:105340005F504F52545F534F555243452847504981
:105350004F5F506F7274536F757263652900000060
:1053600049535F4750494F5F4554485F4D45444955
:10537000415F494E54455246414345284750494FA5
:105380005F4554485F4D65646961496E7465726636
:10539000616365290000000049535F5243435F4841
:1053A0005345285243435F48534529002E2E2F531F
:1053B00072632F73746D3332663130785F7263635A
:1053C0002E63000049535F5243435F43414C4942BF
:1053D000524154494F4E5F56414C55452848534918
:1053E00043616C6962726174696F6E56616C756558
:1053F0002900000049535F46554E4354494F4E41E2
:105400004C5F5354415445284E657753746174651D
:105410002900000049535F5243435F504C4C5F5397
:105420004F55524345285243435F504C4C536F7580
:10543000726365290000000049535F5243435F5087
:105440004C4C5F4D554C285243435F504C4C4D756E
:105450006C29000049535F5243435F535953434CF7
:105460004B5F534F55524345285243435F53595363
:10547000434C4B536F7572636529000049535F526B
:1054800043435F48434C4B285243435F5359534374
:105490004C4B290049535F5243435F50434C4B28C8
:1054A0005243435F48434C4B2900000049535F522D
:1054B00043435F4954285243435F49542900000045
:1054C00049535F5243435F555342434C4B5F534FE5
:1054D00055524345285243435F555342434C4B5327
:1054E0006F7572636529000049535F5243435F4102
:1054F0004443434C4B285243435F50434C4B322967
:105500000000000049535F5243435F4C534528520B
:1055100043435F4C5345290049535F5243435F5215
:105520005443434C4B5F534F5552434528524343DA
:105530005F525443434C4B536F75726365290000AF
:1055400049535F5243435F4148425F50455249507F
:1055500048285243435F4148425065726970682948
:105560000000000049535F5243435F415042325FA5
:10557000504552495048285243435F4150423250AF
:10558000657269706829000049535F5243435F4167
:105590005042315F504552495048285243435F4181
:1055A00050423150657269706829000049535F525A
:1055B00043435F4D434F285243435F4D434F2900C0
:1055C00049535F5243435F464C4147285243435F30
:1055D000464C41472900000049535F5243435F470F
:1055E00045545F4954285243435F49542900000001
:1055F00049535F5243435F434C4541525F495428EE
:105600005243435F4954290049535F54494D5F4118
:105610004C4C5F5045524950482854494D78290018
:105620002E2E2F5372632F73746D333266313078A0
:105630005F74696D2E63000049535F54494D5F43A9
:105640004F554E5445525F4D4F44452854494D5F88
:1056500054696D6542617365496E697453747275FE
:1056600063742D3E54494D5F436F756E7465724D82
:105670006F6465290000000049535F54494D5F4342
:105680004B445F4449562854494D5F54696D654207
:10569000617365496E69745374727563742D3E54F9
:1056A000494D5F436C6F636B4469766973696F6ED4
:1056B0002900000049535F54494D5F4C4953543809
:1056C0005F5045524950482854494D782900000000
:1056D00049535F54494D5F4F435F4D4F44452854F4
:1056E000494D5F4F43496E69745374727563742DED
:1056F0003E54494D5F4F434D6F64652900000000E3
:1057000049535F54494D5F4F55545055545F53545E
:105710004154452854494D5F4F43496E6974537451
:10572000727563742D3E54494D5F4F757470757476
:10573000537461746529000049535F54494D5F4FAC
:10574000435F504F4C41524954592854494D5F4F83
:1057500043496E69745374727563742D3E54494D98
:105760005F4F43506F6C61726974792900000000CB
:1057700049535F54494D5F4F55545055544E5F53F4
:10578000544154452854494D5F4F43496E69745301
:1057900074727563742D3E54494D5F4F7574707506
:1057A000744E5374617465290000000049535F54BE
:1057B000494D5F4F434E5F504F4C41524954592819
:1057C00054494D5F4F43496E6974537472756374E5
:1057D0002D3E54494D5F4F434E506F6C617269745A
:1057E0007929000049535F54494D5F4F434E494466
:1057F0004C455F53544154452854494D5F4F4349EC
:105800006E69745374727563742D3E54494D5F4FC5
:10581000434E49646C65537461746529000000004F
:1058200049535F54494D5F4F4349444C455F53547E
:105830004154452854494D5F4F43496E6974537430
:10584000727563742D3E54494D5F4F4349646C65D6
:10585000537461746529000049535F54494D5F4C8E
:10586000495354365F5045524950482854494D7861
:105870002900000049535F54494D5F4C495354334C
:105880005F5045524950482854494D78290000003E
:1058900049535F54494D5F4348414E4E454C28544F
:1058A000494D5F4943496E69745374727563742D31
:1058B0003E54494D5F4368616E6E656C290000007F
:1058C00049535F54494D5F49435F53454C454354E9
:1058D000494F4E2854494D5F4943496E697453748A
:1058E000727563742D3E54494D5F494353656C6531
:1058F0006374696F6E29000049535F54494D5F49D5
:10590000435F5052455343414C45522854494D5FE3
:105910004943496E69745374727563742D3E5449DA
:105920004D5F49435072657363616C657229000075
:1059300049535F54494D5F49435F46494C54455272
:105940002854494D5F4943496E69745374727563B5
:10595000742D3E54494D5F494346696C7465722904
:105960000000000049535F54494D5F49435F504F69
:105970004C41524954592854494D5F4943496E6935
:10598000745374727563742D3E54494D5F4943508E
:105990006F6C6172697479290000000049535F548B
:1059A000494D5F49435F504F4C41524954595F4CF8
:1059B0004954452854494D5F4943496E69745374AD
:1059C000727563742D3E54494D5F4943506F6C614D
:1059D000726974792900000049535F54494D5F4C46
:1059E000495354325F5045524950482854494D78E4
:1059F0002900000049535F54494D5F4F5353525F94
:105A000053544154452854494D5F42445452496EC1
:105A100069745374727563742D3E54494D5F4F53CE
:105A200053525374617465290000000049535F5458
:105A3000494D5F4F5353495F53544154452854498E
:105A40004D5F42445452496E697453747275637465
:105A50002D3E54494D5F4F5353495374617465292A
:105A60000000000049535F54494D5F4C4F434B5F6A
:105A70004C4556454C2854494D5F42445452496E5A
:105A800069745374727563742D3E54494D5F4C4F65
:105A9000434B4C6576656C290000000049535F5408
:105AA000494D5F425245414B5F5354415445285440
:105AB000494D5F42445452496E6974537472756320
:105AC000742D3E54494D5F427265616B29000000A0
:105AD00049535F54494D5F425245414B5F504F4CD3
